:02000004080AE8
:1000000000000A082C400A0800000500060005014F
:080010000402EA0300000000F5
:10001800F8390A0809480A4908B5884205D0094A42
:10002800824202D0121A03F079FC0748074A0021DD
:10003800121A03F07EFC064808BD00BF000300202A
:10004800743F0A089003002090030020CC0A002087
:10005800CC0A002070B502F0DDFA074B074C1E46AB
:10006800E41AA4080025A54204D056F8253098477C
:100078000135F8E770BD00BF303F0A086C3F0A0839
:1000880000F0F4BB08B500F075FDBDE8084002F0CB
:1000980083BA01F095BC01F09BBC0078B0FA80F0FF
:1000A800400970470123037070477047704700008C
:1000B8002DE9F84F0C4605462426324600212046F5
:1000C80003F037FC0023EB802B816B8126602B69C2
:1000D80063600423A36001F0BDFA206102F02CFBE9
:1000E800212101F0E1FC02F027FB036880219B68D5
:1000F800984702F021FB01F0E2FC02F01DFB072209
:10010800212101F0CEFC02F017FB03685B699847D8
:1001180002F012FB03685B699847064602F00CFB85
:1001280003685B699847074602F006FB0368FFB25D
:100138005B699847834602F0FFFA036847EA062698
:100148005B699847814602F0F7FA036836B25B6943
:100158009847824602F0F0FA03685B699847804640
:10016800304603F08DF960615FFA89F040EA0B20B0
:1001780000B203F085F9A0615FFA88F040EA0A202E
:1001880000B203F07DF9E061EE80A06903F092FB14
:100198002881E06903F08EFBAB896881B3F5FA7FAB
:1001A80026D010D8FA2B44D14FF07051606903F073
:1001B800BBF94FF070516061A06903F0B5F94FF0D9
:1001C8007051A06131E0B3F57A7F20D0B3F5FA6FB2
:1001D8002FD14FF07651606903F0A6F94FF07651B0
:1001E8006061A06903F0A0F94FF07651A0611CE0AE
:1001F8004FF07251606903F097F94FF072516061E6
:10020800A06903F091F94FF07251A0610DE04FF031
:100218007451606903F088F94FF074516061A06906
:1002280003F082F94FF07451A061E06903F07CF9A2
:10023800E0616069084903F077F907496061A069DE
:1002480003F072F90449A061E06903F06DF9E06117
:100258000120BDE8F88F00BF35FA8E3C10B5044682
:10026800FFF719FF204610BDF8B50C4605460021DA
:100278002822204603F05DFB174B1A6822605A6853
:1002880062601A899B7A2281A37201220023E37299
:10029800E2602A696362226104226261A88903F02C
:1002A800EBF80E4903F040F9A061A88902F03EFD81
:1002B80007A3D3E9002301F10047394602F09CFD6A
:1002C80002F0D4FF0023E0612362F8BDAFF30080A1
:1002D800000000A046DF913F0C3A0A0835FA8E3C30
:1002E80038B514460D4602F027FA212101F0E0FB4B
:1002F80002F022FA036829469B68984702F01CFA24
:10030800036821469B68984702F016FABDE8384012
:1003180001F0D5BB10B50C4602F00EFA212101F010
:10032800C3FB02F009FA036821469B68984702F06C
:1003380003FA002101F0BFFB60B902F0FDF90122C8
:10034800212101F0AEFB02F0F7F903685B699847D9
:10035800C0B210BD002010BD014A016102607047A3
:10036800203A0A0838B505460C4602F0E5F901F0CE
:1003780089FBAC810024EC802C816C810C212846FF
:10038800FFF7C8FFD72813D1224628461321FFF7C5
:10039800A7FF284640221321FFF7A2FF0E221321B0
:1003A8002846FFF79DFF642001F022FB012038BD9D
:1003B800204638BD01F056B9704710B50446FFF71E
:1003C8006AFE204610BD38B514460D4602F0B4F951
:1003D8001F2101F06DFB02F0AFF9036829469B6805
:1003E800984702F0A9F9036821469B68984702F0EC
:1003F800A3F9BDE8384001F062BB10B50C4602F025
:100408009BF91F2101F050FB02F096F90368214681
:100418009B68984702F090F9002101F04CFB60B905
:1004280002F08AF901221F2101F03BFB02F084F956
:1004380003685B699847C0B210BD002010BD00007A
:1004480010B5024C41610460826110BD483A0A0847
:1004580038B504460D4602F06FF901F013FBA57498
:100468000025E58025816581A581E58125820D210D
:100478002046FFF7C2FFC72826D12A462A21204650
:10048800FFF7A1FFA27C012A04D002D3022A01D0DF
:1004980004E02A460E212046FFF795FF2046022257
:1004A8002B21FFF790FF204615222A21FFF78BFF0B
:1004B80020461F225B21FFF786FF204620225C2171
:1004C800FFF781FF012038BD284638BD2DE9F04FE0
:1004D8000C4615460646242789B03A460021204690
:1004E80003F027FA3A460021284603F022FA0023AF
:1004F800F38033817381B381F38133822760736919
:1005080063600123A3602F60B3696B600223AB6053
:1005180002F012F91F2101F0C7FA02F00DF9036881
:1005280080219B68984702F007F901F0C8FA02F0A9
:1005380003F90D221F2101F0B4FA02F0FDF8036857
:100548005B69984702F0F8F803685B699847814649
:1005580002F0F2F803685B699847804602F0ECF80D
:1005680003685B699847824602F0E6F803685B69AE
:100578009847074602F0E0F803685B6998470190DE
:1005880002F0DAF803685B699847029002F0D4F841
:1005980003685B699847039002F0CEF803685B69CB
:1005A8009847049002F0C8F803685B699847834647
:1005B80002F0C2F803685B699847079002F0BCF83C
:1005C80003685B699847069002F0B6F803685B69B0
:1005D8009847059001F03EF8206128615FFA88F09D
:1005E80040EA092040F38D0002F04AFF6061F8B24A
:1005F80040EA0A2040F38D0002F042FF019BA0610F
:100608009DF8080040EA032040F38D0002F038FF0F
:10061800039BE0619DF8100040EA032000B202F05D
:100628002FFF079A6861D0B240EA0B2000B202F0AF
:1006380027FF059B0699A861D8B240EA012000B2BD
:1006480002F01EFFE861606903F034F9F080A069E8
:1006580003F030F93081E06903F02CF970816869A2
:1006680003F028F9B081A86903F024F9F081E8695A
:1006780003F020F9B37C3082012B1AD00DD3022B62
:1006880026D11D49606902F04FFF1B496061A069CE
:1006980002F04AFF1849A06116E01849606902F0A3
:1006A80043FF16496061A06902F03EFF1349A0614B
:1006B8000AE01349606902F037FF11496061A069D7
:1006C80002F032FF0E49A061E06902F02DFFE061FF
:1006D80068690C4902F028FF0A496861A86902F0B4
:1006E80023FF0849A861E86902F01EFFE8610120BC
:1006F80009B0BDE8F08F00BFE7D01C3CE7D01C3B39
:10070800E7D09C3BCDCCCC3D00B58BB001AAFFF720
:10071800DDFE0BB05DF804FB70B50C4615460646C9
:1007280028220021204603F004F928220021284627
:1007380003F0FFF80B221C49204603F045F900237B
:100748000122E372E2607169626121616362B37CD4
:1007580093420ED007D3022B11D1144BA361144B33
:10076800E361144B0AE0144BA361144BE361144B8F
:1007780004E0144BA361144BE361144B23620B2276
:100788000949284603F020F900230122EB72EA60A8
:10079800B2696B620E4B2A61AB610E4B0222EB61B0
:1007A8000D4B6A612B6270BD343A0A080AE89C4214
:1007B800F4D39CC2E7D01C3C0AE89C41F4D39CC10A
:1007C800E7D01C3B0AE81C42F4D31CC2E7D09C3B90
:1007D80000009644000096C4CDCCCC3D00B58BB04B
:1007E8006A46FFF799FF0BB05DF804FB00F03ABFCB
:1007F8007047000008B501F025FE034901F00DFA25
:10080800024B01221A7008BD5C3A0A084405002010
:1008180008B501F017FE034901F0FFF9024B012268
:100828001A7008BD663A0A084505002010B5044646
:10083800054B03606433036101F0A2FB204601F01D
:10084800DBFC204610BD00BFF83D0A0810B5044681
:10085800FFF721FC204610BD10B50446FFF7E6FF60
:100868002046FFF718FC204610BD00002DE9F04394
:10087800A5B001F0E7FD4FF4E13101F0C3FD01F04F
:10088800E1FD01F0C6FD0028F9D001F0DBFD5E496D
:1008980001F0C3F901F0D6FD5C4901F0BEF9012170
:1008A8005B48FFF7D5FD28B901F0CCFD594901F0A7
:1008B800B4F9FEE701F0C6FD574901F0AEF901F0C1
:1008C800C1FD524901F0A9F9FA215448FFF74AFD40
:1008D80028B901F0B7FD524901F09FF9FEE701215F
:1008E800072001F0E7FE01F0ADFD4E4901F095F952
:1008F80000231A461946184601F042F8002211460C
:10090800104601F045F80028F8D0474B0022198816
:10091800464801F00FFB002319461846444A01F0E7
:100928003FF801F08FFD054600244022002114A85D
:1009380002F0FFFF402314AA00942146204601F04C
:1009480037F814A90BA801F02DFA0B99284601F0E5
:1009580064F90BA801F0DFF901F074FD22460546A1
:100968002146204601F004F8DFF8D890811C14A82D
:1009780001F0D4F8DFF8D08014A9284601F057F91F
:100988002C4FB9F80000012101F094FE2A4EB8F866
:100998000000012101F08EFE284D3888012101F068
:1009A80089FE274C3088012101F084FE2888012126
:1009B80001F080FE2088012101F07CFEB9F80000DA
:1009C800012101F088FEB8F80000012101F083FE42
:1009D8003888012101F07FFE3088012101F07BFE7B
:1009E8002888012101F077FE2088012101F073FE9B
:1009F8000BAA02A90648FFF769FD14A90748FFF7E3
:100A080057FB25B0BDE8F083713A0A08E63C0A08AE
:100A1800E80400207F3A0A08B23A0A0808050020CC
:100A2800C13A0A08F63A0A08100300209403002085
:100A3800FC3A0A08080300201803002020030020BD
:100A48000C030020240300201403002030B50446C2
:100A5800A5B06423A8220093C021012303A801F0B4
:100A68007DF811490FA800F00FFC10490FA800F0FD
:100A78000BFD204602F01EFF01460FA800F0DDFC2A
:100A88000B4D0C4B0AAC09930FCD0FC42B6809AA68
:100A98002370094942F2B9230FA800F029FD0FA8D5
:100AA80000F016FC25B030BDFB3A0A08013B0A08E5
:100AB8002C050020C43C0A089403002030B56523A7
:100AC800A5B0A8220093C021012303A801F046F88D
:100AD8000D490FA800F0D8FB0FA80C4900F0D4FC72
:100AE8000B4B0AAC04AD09930FCD0FC42B6809AAB0
:100AF8002370084942F2B8230FA800F0F9FC0FA8A8
:100B080000F0E6FB25B030BDFB3A0A08013B0A08B5
:100B1800C43C0A089403002030B56523A5B0A82278
:100B28000093C021012303A801F018F80D490FA86C
:100B380000F0AAFB0FA80C4900F0A6FC0B4B0AAC6E
:100B480004AD09930FCD0FC42B6809AA2370084977
:100B580042F2B8230FA800F0CBFC0FA800F0B8FBB6
:100B680025B030BD033B0A08013B0A08C43C0A080B
:100B7800940300202DE9F041B0B009AA69467F48E6
:100B8800FFF7A4FC12A97E48FFF792FA1BA800F011
:100B98005DFB7C4801F072FB041E18DD14F1FF3484
:100BA80007D3784801F099F9C1B21BA800F0ADFB52
:100BB800F4E71BA800F0B8FB48B1734A73491BA8B7
:100BC80000F02EFC724A73491BA800F029FC7249F8
:100BD8000E9802F0A1FB714D04462E684FF080413B
:100BE800304602F099FB0146204602F059FE48B90A
:100BF8004FF08041304602F08DFB0146204602F05E
:100C080031FE18B120462C60FFF720FF644B654C7D
:100C1800188801F079FD644B2060188801F074FD94
:100C2800624B24686249634A1860002341F82340F4
:100C380042F823000133202B5D4F5E4EF6D15E4D06
:100C48005E4C2A682168002357F82300024456F8AE
:100C580023000133202B0144F6D191FBF3F192FBE1
:100C6800F3F321602B6000F0F5FC4FF47A73B0FBCE
:100C7800F3F202FB1300524F524B28B94E4A126846
:100C88001A604E4A12683A601B682A68A3F5967380
:100C9800934202DD0020FFF711FF4B4B4B4E1A78B1
:100CA8001D4642B133781BB100F0D4FC484B1860A4
:100CB800002333702B703B682268643B934202DD4B
:100CC8000020FFF729FF434B434D1A781C4642B1D9
:100CD8002B781BB100F0BEFC404B186000232B7032
:100CE80023703778002F40F0D68001F0ABFB3C49E9
:100CF80000F07AFF01F0A6FB804600F0ABFC344C14
:100D08000A222168411A404600F0C7FF00F0A2FC01
:100D1800236803F5FA63984208D2324B394618889B
:100D280001F0D9FC01F08EFB2F495AE100F092FC4A
:100D3800236803F5FA63984207D900F08BFC23680F
:100D480003F6B8339842C0F0448100F083FC23686E
:100D580003F6020398424DD900F07CFC1C4B1B683B
:100D680003F62E13984245D2204B0021188801F033
:100D7800B2FC01F067FB1E4950E100BFE804002007
:100D88000805002094030020FD070A080A3B0A080A
:100D980019080A08103B0A080000C8420405002088
:100DA800000300201C05002004030020200500206B
:100DB800E00300205C0400204C050020E004002033
:100DC8004805002024050020440500201C030020BD
:100DD800E4040020450500201D03002040050020F4
:100DE800173B0A08240300201E3B0A0814030020AE
:100DF800943B0A0800F02EFC236803F62E13984251
:100E080008D900F027FCC34B1B6803F62823984237
:100E1800C0F0FC8000F01EFC236803F516639842BE
:100E280000F2E28000F016FC236803F628239842BB
:100E380008D900F00FFCB74B1B6803F52F639842E5
:100E4800C0F0028100F006FC236803F57A6398423B
:100E580000F2E78000F0FEFB236803F5BB53103374
:100E6800984209D900F0F6FBAA4B1B6803F5DA5340
:100E780018339842C0F0F38000F0ECFB236803F5C8
:100E88009C432033984206D90123337001F0DAFAE3
:100E9800A14900F0C2FE2E78002E40F0918001F0AA
:100EA800D1FA9E4900F0A0FE01F0CCFA074600F006
:100EB800D1FB9B4C0A222168411A384600F0EDFE0E
:100EC80000F0C8FB236803F5FA63984208D2954BF3
:100ED8003146188801F0FFFB01F0B4FA9249D1E0DD
:100EE80000F0B8FB236803F5FA63984207D900F0CD
:100EF800B1FB236803F6B8339842C0F0BB8000F01A
:100F0800A9FB236803F60203984208D900F0A2FB64
:100F1800834B1B6803F62E139842C0F0C88000F07C
:100F280099FB236803F62E13984208D900F092FB28
:100F38007B4B1B6803F628239842C0F0C18000F061
:100F480089FB236803F51663984200F29E8000F03F
:100F580081FB236803F62823984208D900F07AFB1E
:100F68006F4B1B6803F52F639842C0F0C78000F0F1
:100F780071FB236803F57A63984200F2AC8000F0B5
:100F880069FB236803F5BB531033984209D900F075
:100F980061FB634B1B6803F5DA5318339842C0F0C2
:100FA800DB8000F057FB236803F59C43203398420D
:100FB80006D901232B7001F045FA574900F02DFEA0
:100FC8000A2000F015FD1BA800F082F930B0BDE83A
:100FD800F081564B0121188801F07DFB01F032FAAF
:100FE800534900F01AFEB0E600F034FB494B1B6889
:100FF80003F628239842BFF415AF4E4B00211888FA
:1010080001F069FB01F01EFA4B4925E0494B01212B
:10101800188801F060FB01F015FA484900F0FDFD61
:10102800F8E600F017FB3B4B1B6803F5BB53103386
:101038009842BFF40FAF3D4B0021188801F04BFBDD
:1010480001F000FA3E4912E03A4B0121188801F0FC
:1010580042FB01F0F7F9394900F0DFFDF2E6334BC6
:101068000121188801F037FB01F0ECF9354900F04F
:10107800D4FD01E72B4B0121188801F02CFB01F06E
:10108800E1F9314900F0C9FD39E700F0E3FA244BF2
:101098001B6803F628239842BFF459AF2B4B002155
:1010A800188801F018FB01F0CDF929492EE0274BEB
:1010B8000021188801F00FFB01F0C4F9244907E06A
:1010C800224B0121188801F006FB01F0BBF92149E8
:1010D80000F0A3FD33E700F0BDFA114B1B6803F5E0
:1010E800BB5310339842BFF44AAF0E4B0021188807
:1010F80001F0F1FA01F0A6F90B4935E0134B012193
:10110800188801F0E8FA01F09DF9124900F085FD10
:101118002DE700BFE4040020413B0A08453B0A08CC
:1011280040050020180300204D3B0A082403002036
:10113800703B0A0814030020943B0A08B73B0A08CE
:101148001E3B0A08D93B0A08FC3B0A08200300207A
:10115800203C0A08433C0A08054B0121188801F085
:10116800BAFA01F06FF9034900F057FD19E700BF1B
:1011780018030020653C0A0837B500F073FA00210F
:10118800012000F0D1FB4FF69C731F4C00256380B3
:101198004FF6FF730220A380257000F0B5FB02A86C
:1011A80040F8045D2A46294600F044FA019B1E2BAC
:1011B80004D10323237011236580A380134A1449A3
:1011C8001448FFF73DF9144A1449124801F00EFB80
:1011D80013491448FFF7C0F80F4A1349114801F0A2
:1011E80005FB124800F08CFC0B4A11490F4801F02E
:1011F800FDFA104800F0E2FF074A0F490D4801F0D8
:10120800F5FA03B030BD00BFD80400200B70080009
:101218000A700800E804002090030020C1030A08AF
:101228002C00210008050020B5000A082805002028
:10123800F9070A089403002035080A080023036008
:1012480083624360C36403657047000038B5044691
:101258000C4D0830294600F0A5FD294604F1180078
:1012680000F0A0FD294604F12C0000F09BFD294662
:1012780004F13C0000F096FD2046FFF7DFFF204612
:1012880038BD00BFE63C0A08F8B504460F460F4DC6
:101298000830294600F086FD04F12C06294604F1A1
:1012A800180000F07FFD2946304600F07BFD2946F6
:1012B80004F13C0000F076FD2046FFF7BFFF3946F9
:1012C800304600F082FD2046F8BD00BFE63C0A0823
:1012D80010B50446006800F07BFBA06A00F078FBBC
:1012E800E06C00F075FB04F13C0000F014FD04F123
:1012F8002C0000F010FD04F1180000F00CFD04F1C2
:10130800080000F008FD204610BD38B50D464168BC
:1013180004460131006800F063FB206018B163687F
:101328005A1C6260C55438BD4FF0FF322DE9F04FAA
:10133800064614469146904683B000F1180B00AF5C
:10134800D6F804A0551CAA4561DD31684B5D2C2BED
:1013580010D1E846D31D23F00703ADEB030D684613
:1013680002F0DCFA694606F1080000F02EFDC546D9
:10137800A8464AE0B8F1000F47DDBBB9B9F1000F44
:1013880014DAE946C8EB0503063323F00703ADEB8F
:10139800030D08F101031944684602F0BFFA6946D3
:1013A800584600F012FDCD46A9462EE0B9F1000FCF
:1013B8002BDD002C28DAC8EB09000423441E90FB1F
:1013C800F3F0002806DB01F0B1FC0022134B01F01A
:1013D80061FB05E001F0AAFC0022104B01F058FB6C
:1013E80001F01CFFC4EB800403344C44C4EB0A0234
:1013F80010467A6000F0E4FA3168B06221447A68F5
:1014080002F08CFA544600E003D12A4698E70020FF
:1014180000E001200C37BD46BDE8F08F0000E03F3A
:1014280070B504460830154600F004FD20B120468A
:101438002B46BDE87040184770BD38B50D46016DA4
:1014480004460431C06C00F0CBFAE064D0B1236DDF
:101458002A0EC254E26C236D04F13C0013442A1492
:101468005A70E26C236D692113442A129A70236D15
:10147800E26C1344DD70236D04332365BDE8384006
:1014880000F0CBBC38BD0000F8B5044608460E464F
:1014980002F092FA07460130800801F037FC00227A
:1014A800124B01F0F7FA01F0B9FE216D0130850009
:1014B8002944E06C00F094FAE064B0B1236D2A4648
:1014C8000021184402F035FAE06C236D31463A46A3
:1014D800184402F023FA206D73210544256504F1B0
:1014E8003C00BDE8F84000F098BCF8BD0000E03FC3
:1014F8002DE9F04F8BB0D0F82C8000AF81464046E4
:101508000E46FA60BB6002F057FA054603308008C1
:1015180001F0FCFB0022404B01F0BCFA01F07EFE1A
:10152800D9F83CA08400504602F046FA651B013405
:10153800834604440130800801F0E8FB0022364B62
:1015480001F0A8FA01F06AFECBF1030BD9F850308C
:101558000BEB800B5C441C44E21D22F00702ADEB50
:10156800020D0021224668463B6002F0E2F940463F
:1015780002F022FA41460246684602F0CFF9404698
:1015880002F01AFA0DEB05022C211154404602F024
:1015980013FA7860504602F00FFA7A68514602F161
:1015A800010EAE4402460DEB0E0002F0B7F94046BC
:1015B80002F002FA8046504602F0FEF9404401303B
:1015C8003B68054405EB0B001A46D9F84C106844F3
:1015D80002F0A4F93368FD68D3F838800F4B07F19F
:1015E800140E04353B610FCDAEE80F002B683A8925
:1015F8008EF8003007F110013046C04733682246A4
:101608006946DB6830469847336830461B6C984714
:101618002C37BD46BDE8F08F0000E03FC43C0A0807
:1016280000F020B808B5024B1B681B6B019308BD7E
:10163800D001060808B5024B1B68DB6E019308BD94
:10164800B801060808B5024B1B685B68019308BD22
:101658009C01060808B5024B1B685B69019308BD2D
:101668009C01060808B5024B1B681B68019308BD5E
:10167800B001060808B5024B1B685B68019308BDFA
:10168800B001060808B5024B1B689B68019308BDAA
:10169800B001060808B5024B1B68DB68019308BD5A
:1016A800B001060808B5024B1B681B69019308BD09
:1016B800B001060808B5024B1B681B6B019308BDF7
:1016C800B001060808B5024B1B68DB6C019308BD26
:1016D800AC01060808B5024B1B685B6D019308BD99
:1016E800AC01060808B5024B1B689B6D019308BD49
:1016F800AC01060808B5024B1B68DB6D019308BDF9
:10170800AC01060808B5024B1B681B6E019308BDA7
:10171800AC01060808B5024B1B685B6E019308BD57
:10172800AC01060808B5024B1B689B6E019308BD07
:10173800AC01060808B5024B1B68DB6E019308BDB7
:10174800AC01060808B5024B1B681B6F019308BD66
:10175800AC01060808B5024B1B685B6F019308BD16
:10176800AC01060808B5034B1B68D3F88030019319
:1017780008BD0000AC01060808B5024B1B685B6891
:10178800019308BDBC01060808B5024B1B689B689D
:10179800019308BDBC01060808B5024B1B685B69CC
:1017A800019308BDBC01060808B5024B1B68DB693C
:1017B800019308BDBC01060808B5024B1B681B6AEB
:1017C800019308BDBC01060808B5024B1B681B6BDA
:1017D800019308BDBC01060808B5024B1B68DB690C
:1017E800019308BDB401060808B5024B1B681B6AC3
:1017F800019308BDB401060808B5024B1B689B6934
:10180800019308BDC401060808B5024B1B685B6A52
:10181800019308BDC401060808B5024B1B689B6A02
:10182800019308BDC401060808B5024B1B68DB6AB2
:10183800019308BDC401060808B5024B1B681B6B61
:10184800019308BDC401060808B5024B1B685B6B11
:10185800019308BDC401060808B5024B1B689B6BC1
:10186800019308BDC401060808B5024B1B681B6C30
:10187800019308BDC401060808B5024B1B681B6824
:10188800019308BDD801060808B5024B1B685B68C0
:10189800019308BDD801060808B5024B1B681B69EF
:1018A800019308BDD801060808B5024B1B685B699F
:1018B800019308BDD801060808B5024B1B689B694F
:1018C800019308BDD801060808B5024B1B68DB69FF
:1018D800019308BDD801060808B5024B1B681B6AAE
:1018E800019308BDD801060808B5024B1B685B6A5E
:1018F800019308BDD801060808B5024B1B689B6C0C
:10190800019308BDC001060808B5024B1B685B6857
:10191800019308BDA401060808B5024B1B685B6962
:10192800019308BDA401060808B5024B1B68DB6AD1
:10193800019308BDA401060808B5034B1B68D3F83A
:101948009030019308BD0000A401060808B5034BB8
:101958001B68D3F89C30019308BD0000A401060859
:1019680008B5024B1B68DB6B019308BDCC01060868
:1019780008B5024B1B681B68019308BDC80106081F
:1019880008B5024B1B685B68019308BDC8010608CF
:1019980008B5024B1B681B69019308BDC8010608FE
:1019A80008B5024B1B689B6B019308BDC80106086C
:1019B80008B5024B1B68DB6B019308BDC80106081C
:1019C80008B5024B1B681B68019308BDA0010608F7
:1019D80008B5024B1B685B68019308BDA0010608A7
:1019E80008B5024B1B689B68019308BDA001060857
:1019F8000021FFF791BF10B58368044613B1032295
:101A080001469847204610BD7047F8B5064615466A
:101A18000C468F18BC4206D0336814F8011B9B682B
:101A280030469847F6E72846F8BD0022007CFFF7C5
:101A380069BE0021007CFFF76DBE0021007CFFF726
:101A480071BE0021007CFFF775BE0021007CFFF706
:101A580079BE10B50446FEF71EFB204610BD0000F7
:101A680010B5044608464FF47A73A360044B00216E
:101A7800207461602360FFF775FE204610BD00BF2B
:101A88009C3C0A0800231A461946007CFFF71ABE38
:101A980013B50024007C0094FFF71CFEC0B202B00E
:101AA80010BD0123FFF7F4BF0022007CFFF71ABE28
:101AB800C9B2FFF7F9BF0022007CFFF71BBE012166
:101AC800FFF7F9BF0021007CFFF744BEF8B50F46C9
:101AD80000F10806051D002416F8011D0A223846E3
:101AE80000F0D9F8AE42044407D0002CF4D02E21DF
:101AF800384600F07DF80444EEE72046F8BD0000C3
:101B080010B50446044B112240F8043B002101F0B3
:101B180010FF204610BD00BFC43C0A080346074A10
:101B280010B543F8042B01F1100251F8044B91420F
:101B380043F8044BF9D10A781A7010BDC43C0A085E
:101B480010B59DF8084044EA032343EA024242EAFA
:101B5800016104234160037510BD000037B5044DD1
:101B680005609DF818500095FFF7EAFF03B030BDF7
:101B7800C43C0A0837B50D788B784A78C978009143
:101B88002946FFF7DDFF03B030BD0000014A024BD4
:101B98001A6070478B3D0A0850050020F8B50646C4
:101BA8000D468F180024BD420CD0336815F8011B70
:101BB8009B6830469847002801DB0444F3E7002C73
:101BC80008BF04462046F8BD70B505460C460846D1
:101BD80049B101F0F1FE2B68024621462846BDE8CE
:101BE8007040DB68184770BD08B5FFF7EDFF08BD0A
:101BF80003689B6818470B460A680146126818462E
:101C0800104738B50D210546FFF7F2FF0A210446B3
:101C18002846FFF7EDFF204438BD38B50546FFF7E5
:101C2800D3FF04462846FFF7ECFF204438BD38B5FB
:101C38000546FFF7E0FF04462846FFF7E2FF204489
:101C480038BD012A98BF0A2230B50B468BB0002157
:101C58008DF824100DF12304B3FBF2F505FB1233C4
:101C6800DBB2092B94BF30333733DBB2214604F89B
:101C780001392B46002DEFD1FFF7A6FF0BB030BD81
:101C880010B422B90368C9B29B6810BC1847D2B215
:101C980010BCFFF7D6BFFFF7F3BF38B50546FFF70F
:101CA800EFFF04462846FFF7ACFF204438BD10B5C7
:101CB8000446FFF7A0FE204610BD0000034800239D
:101CC8008360034A034900F091BD00BF540500201A
:101CD80090030020B71C0A08704710B50446FEF7A9
:101CE800DAF9204610BD000070B504460E46074BD1
:101CF8000025036040F80C5FFFF794FC304626711E
:101D0800FFF76AFDA560204670BD00BFBC3D0A080C
:101D18000079FFF769BD10B504460068FFF758FE63
:101D2800204610BD10B50446006808B1FFF750FE04
:101D380000232360A360636010BD38B504460D46D8
:101D480000680131FFF74CFE10B184E82100012042
:101D580038BD10B50368044613B143688B4207D2F7
:101D68002046FFF7EAFF20B1A3680BB92268137079
:101D7800012010BD70B50E46114604461546FFF702
:101D8800E8FF18B92046FFF7CDFF09E02A4631469B
:101D9800A560206801F0C2FD2268A3680021D15423
:101DA800204670BD38B50023044603604360836055
:101DB80003730D4639B1084601F0FEFD2946024677
:101DC8002046FFF7D7FF204638BD38B505460C46F4
:101DD80041B1084601F0F0FD214602462846FFF7CA
:101DE800C9FF01E0FFF79EFF284638BD70B50446DD
:101DF8000E4609B9002070BD6AB18368D518294616
:101E0800FFF7A7FF0028F5D02068A36831461844DB
:101E180001F0CAFDA560012070BD07B500238DF84B
:101E28000410012201A98DF80530FFF7DFFF03B088
:101E38005DF804FB08B582680B4612B919B9012090
:101E480008BD11B90368187802E0006801F0A2FD26
:101E5800B0FA80F0400908BD4FF69C7337B50D4CB9
:101E6800002563804FF6FF732846A3802570FFF78F
:101E78004BFD02A840F8045D2A462946FFF7DAFB25
:101E8800019B1E2B04D10323237011236580A3809B
:101E980003B030BD64050020024B1A68024B1A607B
:101EA800704700BF280300206C05002003681B6BE7
:101EB800184703689B6C1847808E7047028FC08E46
:101EC800101A704713B502AB026803F8011DD468F5
:101ED80019460122A04702B010BD10B50368044698
:101EE8001B69984728B1E38EE26B591CE186D05CE8
:101EF80010BD4FF0FF3010BD10B5036804461B69D4
:101F0800984718B1E38EE26BD05C10BD4FF0FF30FC
:101F180010BD70470346084610B4D98EDC6B1A8F83
:101F28000368521ADB68214410BC1847A0F110005E
:101F3800FFF7F0BFF7B5114B054618680F46036861
:101F480016461B689847B8B102213B46112208463D
:101F58000096FFF719FC6861FFF70EFC044630B1E4
:101F68000023EB862B872F836E64012004E02B6807
:101F780028465B6A9847204603B0F0BDCC3E0A0865
:101F880038B504464569FFF71FFC854202D06069F1
:101F9800FFF712FCFFF718FC00236061E386238734
:101FA80038BD30B587B0BDF828400225ADF80850D7
:101FB8008DF80B40250ADC798DF80A508DF80C4015
:101FC8009C798DF80D405C791B798DF80E408DF861
:101FD8000F301023019302AB009340690023FFF7F1
:101FE800E3FB07B030BD38B5C36B0546C08E13B1EF
:101FF8002C6C241A00E01C46944228BF144618444E
:10200800224601F08BFCEB8E20462344EB8638BD3C
:1020180070B5036804461B690E461546984788B193
:10202800236820461B6998478542A8BF0546E38E6A
:10203800E16B2A461944304601F070FCE38E2B44CC
:10204800E38601E04FF0FF35284670BDF0B5194B27
:102058000446186889B003680D461B6816469847F9
:1020680010B36769FFF7B0FB87421DD0E5B108AB35
:10207800102243F8142D01930DEB02030093294617
:10208800002332466069FFF787FB051E0EDB9DF8CB
:1020980012209DF8133005A943EA0223A38604F110
:1020A8001C00FFF767FD01E04FF0FF35284609B037
:1020B800F0BD00BFCC3E0A082DE9F041164B06469C
:1020C800186894B003680D461B681746984700B314
:1020D800284601F071FC002481B20094736C03AAB5
:1020E8002846FFF709FC98B903A908A8FFF716FDC9
:1020F80033680FACD3F83880084B09AD0E930FCD79
:102108000FC42B683A4623700EA93046C04700E03A
:10211800204614B0BDE8F081CC3E0A08C43C0A0849
:1021280070B504460646054B01F1200544F8043B0A
:102138000FCD0FC42B683046237070BDC43C0A080D
:10214800F0B594468E460646026889B0976A094AF1
:1021580003AC1D1D02920FCD0FC42B68624623707D
:10216800BDF8383071460093304602ABB84709B025
:10217800F0BD00BFC43C0A08F0B50446036889B046
:102188009F6A0D4B03AD00F12006B0F836E00293CC
:102198000FCE0FC5336872462B70A38EE16B009388
:1021A800204602ABB847054623682046DB699847B6
:1021B800284609B0F0BD00BFC43C0A0838B54FF442
:1021C8007A7383600B4B002503F108026C330260BD
:1021D800036145600446FFF7F7FA606104F11C00EB
:1021E800FFF78EFC4FF40073E5862587E5632364CB
:1021F800204638BDF03D0A0810B590F8483004462E
:102208001BB1C06B08B1FDF746FF0023E36384F8F8
:1022180048302364E386238710BD70B5044616460C
:102228000D46FFF7E9FF0023E66323643EB935B1A5
:102238002846FDF72EFF0123E06384F84830E36B5E
:1022480003B12564206C003018BF012070BDF8B5BB
:102258001746C26B05460C461AB9016C09B1FFF75F
:10226800DCFF05F1200604340FCC0FC62368337059
:102278000023AF86EB862B87286CF8BD10B5C26BA0
:1022880004461AB9016C09B1FFF7C7FFE16B0023D7
:10229800E386238741B1226C32B1236820461B6B49
:1022A80098470028C8BF208723682046BDE810400B
:1022B8001B691847704741747047007CFFF7D4BA10
:1022C800007CFFF7A9BA007CFFF7B6BA007CFFF7DD
:1022D800ABBA007CFFF7B8BA10B50446FDF7DBFED1
:1022E800204610BD70B5457C04460E4625B9007CD5
:1022F800FFF7BAFA002805DD3146207CBDE87040BA
:10230800FFF782BA284670BD10B504460846114644
:10231800002262604FF47A72A260054A207422603B
:10232800012262741A46FFF767FA204610BD00BF03
:10233800683E0A08007CFFF78FBA000038B50C4DDC
:10234800296811F0010411D12846FDF7A6FE68B1ED
:10235800084A2146084B0948FFF7D6FF2846FDF7EB
:10236800A1FE074A0749054800F040FA034838BD6E
:10237800080600200C0600208405002070050020B7
:1023880090030020BD220A0841747047704700215D
:10239800007CFFF791BA0121007CFFF78DBA007C21
:1023A800FFF782BA007CFFF777BA38B50446007C9D
:1023B8000D46FFF779FA002801DC607C20B1294638
:1023C800207CFFF781FA012038BD007CFFF784BA32
:1023D80010B50446FDF75FFE204610BD10B5044653
:1023E800002363604FF47A73A360054B08462360AB
:1023F8000123217463741146FFF73EFA204610BD8D
:10240800983E0A080022007CFFF73EBA007CFFF7DE
:102418006BBAFFF7FBBF000010B504461422002179
:1024280001F087FA054B20466360054BE36040F2F4
:10243800011323818123238210BD00BF15070020CB
:102448009406002030B50E4D87B001A8FFF7E4FFD1
:10245800296811F0010410D12846FDF71EFE60B16D
:1024680001AA21460748FFF7B9FF2846FDF71AFEDB
:10247800054A0649034800F0B9F9024807B030BDDB
:1024880090060020180800209003002095230A08D1
:1024980010B504461422002101F04BFA054B2046E2
:1024A8006360054BE36040F201132381812323829B
:1024B80010BD00BFC80800203008002010B50E4C21
:1024C80086B001A8FFF7E4FF2368DB0710D4204695
:1024D800FDF7E3FD60B101AA01210848FFF77EFF7F
:1024E8002046FDF7DFFD064A0649044800F07EF95C
:1024F800024806B010BD00BF2C080020B408002018
:102508009003002095230A087047002211461046C0
:10251800FFF73EBA0348044B044A0549036000F03C
:1025280065B900BFCC090020C83E0A089003002006
:1025380011250A0808B5144B33B1FFF783FF036868
:102548001B699847002816DC104B33B1FFF7F6FEDD
:1025580003681B699847002810DC0D4B0BB1AFF3DB
:1025680000800C4B7BB1FFF7A9FF03681B699847F4
:10257800002806DC08BDAFF30080E5E7AFF3008074
:10258800EBE7AFF3008008BD00000000000000008A
:10259800000000000000000008B5FFF7CBFFFFF7C0
:1025A80059F8014B186008BDD80900200248034AB1
:1025B8000349121A01F0B2B9004002400440024037
:1025C800703F0A0807B5002300931A466FF0770199
:1025D800FFF7BCF903B05DF804FB000007B54388BA
:1025E8000A2B08D0502B09D1094B1B683BB103B00B
:1025F8005DF804EB1847FFF7E5FF06E000230093BA
:102608001A466FF07701FFF7A1F903B05DF804FBF4
:10261800D009002038B5104C104D2368AB42104B40
:102628000CBF012200221A7002D0FFF7BFFF2560FD
:10263800FFF708F801F086F90A4B1BB1FFF702F81B
:10264800AFF3008000210748FFF78AF9BDE838405A
:1026580000210548FFF770B9004002401E1C279A68
:10266800D409002000000000E5250A0810B504463A
:102678000F48FFF74DFB28B1A4F10D03022B01D839
:10268800002010BD00F058F8FFF71CFA08B1012C23
:10269800F6D9FFF753FEFFF74DFE18B1A4F1120368
:1026A800012BEDD9172C8CBF0020012010BD00BFD5
:1026B8000C0A0020172838B504460D460AD8FF2909
:1026C80008D0FFF7D3FF28B129462046BDE8384097
:1026D800FEF7D8BF38BD38B504460D46FEF7DAFF19
:1026E800FF2810D0062804D84D2323FA00F0C3078A
:1026F80009D42046FFF7BAFF28B129462046BDE88D
:102708003840FEF7CFBF38BD10B5044609289CBF36
:102718000A34A4B22046FFF7A9FF50B1032120468E
:10272800FEF7A8FF032804D12046BDE81040FEF7B5
:10273800C1BF002010BD000038B50B4D296811F04D
:1027480001040FD12846FDF7A8FC58B121460748D7
:10275800FFF786F92846FDF7A5FC054A0549034811
:1027680000F044F8014838BDDC090020E0090020E9
:1027780090030020111A0A0813B5084C00231A46C2
:10278800194600932046FFF7E9F92046044A05490F
:1027980002B0BDE8104000F029B800BFF4090020DD
:1027A80090030020F9070A0870B50C4C0C4E0D4D2B
:1027B80000212046FFF798FA20460B4C324629465E
:1027C80000F014F801212046FFF78EFA3246294618
:1027D8002046BDE8704000F009B800BF0C0A002090
:1027E80090030020E11C0A081C0A00200B46014641
:1027F800184601F085B80000244B1A68D0075CBF62
:1028080001221A60224B1A68D1075CBF01221A60A4
:10281800204B1A68D2075CBF01221A601E4B1A6847
:10282800D0075CBF01221A601C4B1A68D1075CBF35
:1028380001221A601A4B1A68D2075CBF01221A607B
:10284800184B1A68D0075CBF01221A60164B1A6829
:10285800D1075CBF01221A60144B1A68D2075CBF0B
:1028680001221A60124B1A68D0075CBF01221A6055
:10287800104B1A68D1075CBF01221A600E4B1A6808
:10288800D2075CBF01221A60704700BF580A0020B7
:10289800540A0020500A00204C0A0020480A002050
:1028A800440A0020400A00203C0A0020380A002080
:1028B800340A0020300A00202C0A0020184B1A681D
:1028C800D1075CBF01221A60164B1A68D2075CBF99
:1028D80001221A60144B1A68D0075CBF01221A60E3
:1028E800124B1A68D1075CBF01221A60104B1A6894
:1028F800D2075CBF01221A600E4B1A68D0075CBF72
:1029080001221A600C4B1A68D1075CBF01221A60B9
:102918000A4B1A68D2075CBF01221A60704700BFD1
:10292800780A0020740A0020700A00206C0A00202F
:10293800680A0020640A0020600A00205C0A00205F
:10294800184B1A68D1075CBF01221A60164B1A6827
:10295800D2075CBF01221A60144B1A68D0075CBF0B
:1029680001221A60124B1A68D1075CBF01221A6053
:10297800104B1A68D2075CBF01221A600E4B1A6806
:10298800D0075CBF01221A600C4B1A68D1075CBFE4
:1029980001221A600A4B1A68D2075CBF01221A602A
:1029A800704700BF980A0020940A0020900A00206F
:1029B8008C0A0020880A0020840A0020800A00204F
:1029C8007C0A0020244B1A68D0075CBF01221A60D9
:1029D800224B1A68D1075CBF01221A60204B1A6883
:1029E800D2075CBF01221A601E4B1A68D0075CBF71
:1029F80001221A601C4B1A68D1075CBF01221A60B9
:102A08001A4B1A68D2075CBF01221A60184B1A6861
:102A1800D0075CBF01221A60164B1A68D1075CBF49
:102A280001221A60144B1A68D2075CBF01221A608F
:102A3800124B1A68D0075CBF01221A60104B1A6843
:102A4800D1075CBF01221A600E4B1A68D2075CBF1F
:102A580001221A60704700BFC80A0020C40A00207B
:102A6800C00A0020BC0A0020B80A0020B40A0020CE
:102A7800B00A0020AC0A0020A80A0020A40A0020FE
:102A8800A00A00209C0A002081F0004102E000BF5B
:102A980083F0004330B54FEA41044FEA430594EA16
:102AA800050F08BF90EA020F1FBF54EA000C55EA51
:102AB800020C7FEA645C7FEA655C00F0E2804FEA22
:102AC8005454D4EB5555B8BF6D420CDD2C4480EA04
:102AD800020281EA030382EA000083EA010180EA34
:102AE800020281EA0303362D88BF30BD11F0004F82
:102AF8004FEA01314FF4801C4CEA113102D04042B8
:102B080061EB410113F0004F4FEA03334CEA1333F2
:102B180002D0524263EB430394EA050F00F0A7800A
:102B2800A4F10104D5F1200E0DDB02FA0EFC22FA05
:102B380005F2801841F1000103FA0EF2801843FAF9
:102B480005F359410EE0A5F120050EF1200E012AEA
:102B580003FA0EFC28BF4CF0020C43FA05F3C01828
:102B680051EBE37101F0004507D54FF0000EDCF1A1
:102B7800000C7EEB00006EEB0101B1F5801F1BD34A
:102B8800B1F5001F0CD349085FEA30004FEA3C0C4E
:102B980004F101044FEA445212F5800F80F09A8044
:102BA800BCF1004F08BF5FEA500C50F1000041EB48
:102BB800045141EA050130BD5FEA4C0C404141EB4C
:102BC800010111F4801FA4F10104E9D191F0000F73
:102BD80004BF01460020B1FA81F308BF2033A3F1F6
:102BE8000B03B3F120020CDA0C3208DD02F1140CED
:102BF800C2F10C0201FA0CF021FA02F10CE002F128
:102C08001402D8BFC2F1200C01FA02F120FA0CFC20
:102C1800DCBF41EA0C019040E41AA2BF01EB045169
:102C2800294330BD6FEA04041F3C1CDA0C340EDC67
:102C380004F11404C4F1200220FA04F001FA02F3AA
:102C480040EA030021FA04F345EA030130BDC4F168
:102C58000C04C4F1200220FA02F001FA04F340EA5D
:102C68000300294630BD21FA04F0294630BD94F00E
:102C7800000F83F4801306BF81F480110134013DF5
:102C88004EE77FEA645C18BF7FEA655C29D094EA66
:102C9800050F08BF90EA020F05D054EA000C04BFE4
:102CA8001946104630BD91EA030F1EBF00210020CF
:102CB80030BD5FEA545C05D14000494128BF41F06E
:102CC800004130BD14F580043CBF01F5801130BDD2
:102CD80001F0004545F0FE4141F470014FF000005D
:102CE80030BD7FEA645C1ABF194610467FEA655C0E
:102CF8001CBF0B46024650EA013406BF52EA0335B0
:102D080091EA030F41F4002130BD00BF90F0000F9D
:102D180004BF0021704730B54FF4806404F13204D9
:102D28004FF000054FF0000150E700BF90F0000F92
:102D380004BF0021704730B54FF4806404F13204B9
:102D480010F0004548BF40424FF000013EE700BF89
:102D580042004FEAE2014FEA31014FEA02701FBF19
:102D680012F07F4393F07F4F81F06051704792F0EB
:102D7800000F14BF93F07F4F704730B54FF4607465
:102D880001F0004521F0004120E700BF50EA0102B0
:102D980008BF704730B54FF000050AE050EA01025D
:102DA80008BF704730B511F0004502D5404261EBCD
:102DB80041014FF4806404F132045FEA915C3FF40E
:102DC800DCAE4FF003025FEADC0C18BF03325FEAA7
:102DD800DC0C18BF033202EBDC02C2F1200300FA5C
:102DE80003FC20FA02F001FA03FE40EA0E0021FA81
:102DF80002F11444C1E600BF70B54FF0FF0C4CF46B
:102E0800E06C1CEA11541DBF1CEA135594EA0C0F20
:102E180095EA0C0F00F0DEF82C4481EA030621EA5B
:102E28004C5123EA4C5350EA013518BF52EA033596
:102E380041F4801143F4801338D0A0FB02CE4FF048
:102E48000005E1FB02E506F00042E0FB03E54FF078
:102E58000006E1FB03569CF0000F18BF4EF0010E70
:102E6800A4F1FF04B6F5007F64F5407404D25FEA6C
:102E78004E0E6D4146EB060642EAC62141EA55511F
:102E88004FEAC52040EA5E504FEACE2EB4F1FD0C61
:102E980088BFBCF5E06F1ED8BEF1004F08BF5FEADF
:102EA800500E50F1000041EB045170BD06F0004691
:102EB80046EA010140EA020081EA0301B4EB5C043E
:102EC800C2BFD4EB0C0541EA045170BD41F4801136
:102ED8004FF0000E013C00F3AB8014F1360FDEBF5B
:102EE800002001F0004170BDC4F10004203C35DA37
:102EF8000C341BDC04F11404C4F1200500FA05F3BA
:102F080020FA04F001FA05F240EA020001F000425A
:102F180021F0004110EBD37021FA04F642EB0601D0
:102F28005EEA430E08BF20EAD37070BDC4F10C04FA
:102F3800C4F1200500FA04F320FA05F001FA04F2BE
:102F480040EA020001F0004110EBD37041F10001AA
:102F58005EEA430E08BF20EAD37070BDC4F12005B5
:102F680000FA05F24EEA020E20FA04F301FA05F21D
:102F780043EA020321FA04F001F0004121FA04F2C5
:102F880020EA020000EBD3705EEA430E08BF20EA95
:102F9800D37070BD94F0000F0FD101F000464000CF
:102FA80041EB010111F4801F08BF013CF7D041EA51
:102FB800060195F0000F18BF704703F00046520055
:102FC80043EB030313F4801F08BF013DF7D043EA26
:102FD8000603704794EA0C0F0CEA135518BF95EADC
:102FE8000C0F0CD050EA410618BF52EA4306D1D163
:102FF80081EA030101F000414FF0000070BD50EA82
:10300800410606BF1046194652EA430619D094EA0B
:103018000C0F02D150EA013613D195EA0C0F05D1F5
:1030280052EA03361CBF104619460AD181EA030149
:1030380001F0004141F0FE4141F470014FF0000001
:1030480070BD41F0FE4141F4780170BD70B54FF09C
:10305800FF0C4CF4E06C1CEA11541DBF1CEA13551C
:1030680094EA0C0F95EA0C0F00F0A7F8A4EB0504FE
:1030780081EA030E52EA03354FEA013100F08880F5
:103088004FEA03334FF0805545EA131343EA1263BE
:103098004FEA022245EA111545EA10654FEA002673
:1030A8000EF000419D4208BF964244F1FD0404F52C
:1030B800407402D25B084FEA3202B61A65EB030588
:1030C8005B084FEA32024FF480104FF4002CB6EB45
:1030D800020E75EB030E22BFB61A754640EA0C00C5
:1030E8005B084FEA3202B6EB020E75EB030E22BF05
:1030F800B61A754640EA5C005B084FEA3202B6EB46
:10310800020E75EB030E22BFB61A754640EA9C0004
:103118005B084FEA3202B6EB020E75EB030E22BFD4
:10312800B61A754640EADC0055EA060E18D04FEA92
:10313800051545EA16754FEA06164FEAC30343EA32
:1031480052734FEAC2025FEA1C1CC0D111F4801FFF
:103158000BD141EA00014FF000004FF0004CB6E7F8
:1031680011F4801F04BF01430020B4F1FD0C88BF97
:10317800BCF5E06F3FF6AFAEB5EB030C04BFB6EBA2
:10318800020C5FEA500C50F1000041EB045170BD95
:103198000EF0004E4EEA113114EB5C04C2BFD4EBC2
:1031A8000C0541EA045170BD41F480114FF0000E46
:1031B800013C90E645EA060E8DE60CEA135594EAC2
:1031C8000C0F08BF95EA0C0F3FF43BAF94EA0C0FC5
:1031D8000AD150EA01347FF434AF95EA0C0F7FF43A
:1031E80025AF104619462CE795EA0C0F06D152EA8E
:1031F80003353FF4FDAE1046194622E750EA410672
:1032080018BF52EA43067FF4C5AE50EA41047FF482
:103218000DAF52EA43057FF4EBAE12E74FEA4102E5
:1032280012F5001215D211D56FF47873B3EB625210
:1032380012D94FEAC12343F0004343EA505311F037
:10324800004F23FA02F018BF404270474FF00000C9
:10325800704750EA013005D111F0004008BF6FF007
:10326800004070474FF00000704700BF4FEA41022E
:10327800B2F1E04324BFB3F5001CDCF1FE5C0DD9CC
:1032880001F0004C4FEAC0024CEA5070B2F1004F16
:1032980040EB830008BF20F00100704711F0804F19
:1032A80021D113F13872BCBF01F00040704741F4DE
:1032B80080114FEA5252C2F11802C2F1200C10FAE2
:1032C8000CF320FA02F018BF40F001004FEAC123C6
:1032D8004FEAD32303FA0CFC40EA0C0023FA02F36A
:1032E8004FEA4303CCE77FEA625307D150EA013340
:1032F8001EBF4FF0FE4040F44000704701F0004010
:1033080040F0FE4040F40000704700BF80F00040ED
:1033180002E000BF81F0004142001FBF5FEA4103A5
:1033280092EA030F7FEA226C7FEA236C6AD04FEAA5
:103338001262D2EB1363C1BFD218414048404140EA
:10334800B8BF5B42192B88BF704710F0004F40F49C
:10335800000020F07F4018BF404211F0004F41F4B8
:10336800000121F07F4118BF494292EA030F3FD084
:10337800A2F1010241FA03FC10EB0C00C3F1200397
:1033880001FA03F100F0004302D5494260EB400026
:10339800B0F5000F13D3B0F1807F06D340084FEA91
:1033A800310102F10102FE2A51D2B1F1004F40EB86
:1033B800C25008BF20F0010040EA030070474900EE
:1033C80040EB000010F4000FA2F10102EDD1B0FAB9
:1033D80080FCACF1080CB2EB0C0200FA0CF0AABFAE
:1033E80000EBC25052421843BCBFD040184370474C
:1033F80092F0000F81F4000106BF80F40000013252
:10340800013BB5E74FEA41037FEA226C18BF7FEA28
:10341800236C21D092EA030F04D092F0000F08BF6A
:103428000846704790EA010F1CBF0020704712F051
:103438007F4F04D1400028BF40F00040704712F190
:1034480000723CBF00F50000704700F0004343F0F5
:10345800FE4040F4000070477FEA226216BF08462B
:103468007FEA23630146420206BF5FEA412390EAEE
:10347800010F40F4800070474FF0000304E000BFE4
:1034880010F0004348BF40425FEA000C08BF704795
:1034980043F0964301464FF000001CE050EA010259
:1034A80008BF70474FF000030AE000BF50EA01026E
:1034B80008BF704711F0004302D5404261EB41015B
:1034C8005FEA010C02BF84460146002043F0B64380
:1034D80008BFA3F18053A3F50003BCFA8CF2083AA5
:1034E800A3EBC25310DB01FA02FC634400FA02FCAE
:1034F800C2F12002BCF1004F20FA02F243EB0200B5
:1035080008BF20F00100704702F1200201FA02FC16
:10351800C2F1200250EA4C0021FA02F243EB020009
:1035280008BF20EADC7070474FF0FF0C1CEAD0524D
:103538001EBF1CEAD15392EA0C0F93EA0C0F6FD00E
:103548001A4480EA010C400218BF5FEA41211ED0EC
:103558004FF0006343EA501043EA5111A0FB0131D8
:103568000CF00040B1F5000F3EBF490041EAD371AD
:103578005B0040EA010062F17F02FD2A1DD8B3F129
:10358800004F40EBC25008BF20F00100704790F098
:10359800000F0CF0004C08BF49024CEA502040EAEA
:1035A80051207F3AC2BFD2F1FF0340EAC2507047B0
:1035B80040F400004FF00003013A5DDC12F1190FEE
:1035C800DCBF00F000407047C2F10002410021FA60
:1035D80002F1C2F1200200FA02FC5FEA310040F178
:1035E800000053EA4C0308BF20EADC70704792F0F1
:1035F800000F00F0004C02BF400010F4000F013A29
:10360800F9D040EA0C0093F0000F01F0004C02BF23
:10361800490011F4000F013BF9D041EA0C018FE792
:103628000CEAD15392EA0C0F18BF93EA0C0F0AD098
:1036380030F0004C18BF31F0004CD8D180EA0100BE
:1036480000F00040704790F0000F17BF90F0004F57
:10365800084691F0000F91F0004F14D092EA0C0F39
:1036680001D142020FD193EA0C0F03D14B0218BFCC
:10367800084608D180EA010000F0004040F0FE4012
:1036880040F40000704740F0FE4040F440007047AE
:103698004FF0FF0C1CEAD0521EBF1CEAD15392EA2D
:1036A8000C0F93EA0C0F69D0A2EB030280EA010C1D
:1036B80049024FEA402037D04FF0805343EA1111B6
:1036C80043EA10130CF000408B4238BF5B0042F114
:1036D8007D024FF4000C8B4224BF5B1A40EA0C00B9
:1036E800B3EB510F24BFA3EB510340EA5C00B3EBEB
:1036F800910F24BFA3EB910340EA9C00B3EBD10FD9
:1037080024BFA3EBD10340EADC001B0118BF5FEA2A
:103718001C1CE0D1FD2A3FF650AF8B4240EBC25053
:1037280008BF20F0010070470CF0004C4CEA502014
:103738007F32C2BFD2F1FF0340EAC250704740F463
:1037480000004FF00003013A37E792F0000F00F055
:10375800004C02BF400010F4000F013AF9D040EAD3
:103768000C0093F0000F01F0004C02BF490011F467
:10377800000F013BF9D041EA0C0195E70CEAD1535F
:1037880092EA0C0F08D142027FF47DAF93EA0C0F46
:103798007FF470AF084676E793EA0C0F04D14B022A
:1037A8003FF44CAF08466EE730F0004C18BF31F0DC
:1037B800004CCAD130F000427FF45CAF31F00043D6
:1037C8007FF43CAF5FE700BF4FF0FF3C06E000BF6F
:1037D8004FF0010C02E000BF4FF0010C4DF804CD92
:1037E8004FEA40024FEA41037FEA226C18BF7FEAA2
:1037F800236C11D001B052EA530C18BF90EA010FA4
:1038080058BFB2EB030088BFC81738BF6FEAE17032
:1038180018BF40F0010070477FEA226C02D15FEACE
:10382800402C05D17FEA236CE4D15FEA412CE1D03A
:103838005DF8040B704700BF844608466146FFE701
:103848000FB5FFF7C9FF002848BF10F1000F0FBDE3
:103858004DF808EDFFF7F4FF0CBF012000205DF8DC
:1038680008FB00BF4DF808EDFFF7EAFF34BF012061
:1038780000205DF808FB00BF4DF808EDFFF7E0FFFA
:1038880094BF012000205DF808FB00BF4DF808ED4B
:10389800FFF7D2FF94BF012000205DF808FB00BFAE
:1038A8004DF808EDFFF7C8FF34BF012000205DF890
:1038B80008FB00BF4FEA4002B2F1FE4F0FD34FF0B2
:1038C8009E03B3EB12620DD94FEA002343F0004385
:1038D80010F0004F23FA02F018BF404270474FF033
:1038E8000000704712F1610F01D1420205D110F0BA
:1038F800004008BF6FF0004070474FF0000070476D
:1039080010B5054C13462CB10A4601460220AFF308
:10391800008010BD204610BD0000000010B5431EF9
:103928000A44914204D011F8014B03F8014FF8E71B
:1039380010BD03460244934202D003F8011BFAE784
:103948007047000038B5124B05461C68A36BD3B905
:103958001820FEF735F843F20E33A06303804AF6C9
:10396800CD33438041F2342383804EF26D63C380AC
:103978004DF6EC630381052343810B2383810122E8
:103988000023C0E90423A36B00221D615A6138BDDE
:103998008C03002010F8012B11F8013B012A28BFE5
:1039A8009A42F7D0D01A7047034611F8012B03F852
:1039B800012B002AF9D17047034613F8012B002A7E
:1039C800FBD1181A01387047034610B542B111F8F7
:1039D800014B013A03F8014B002CF7D11A4400E0DF
:1039E80010BD934202D003F8014BFAE710BD000066
:1039F8001D000A085D000A0889000A088D000A08E7
:103A08000000000046584153323130303243000044
:103A18000000000000000000B5000A0865020A085E
:103A2800B3000A08B9000A0871020A0846584F5339
:103A380038373030000000000000000000000000AF
:103A4800C1030A08C3030A08B3000A0811070A08D1
:103A5800E5070A084D4154542048414C20004D4187
:103A680054542048414C20320046584F5338373080
:103A7800302054657374004F6F6F70732C206E6F15
:103A88002046584F53383730302064657465637466
:103A98006564202E2E2E20436865636B20796F7530
:103AA8007220776972696E6721004779726F736354
:103AB8006F70652054657374004F6F6F70732C209E
:103AC8006E6F20465841533231303032432064659E
:103AD800746563746564202E2E2E20436865636BBD
:103AE80020796F757220776972696E672100494E77
:103AF8004954002F726576330061002F7265763362
:103B080042002F72657632002F7265763242006C61
:103B18006F6F703A20006469676974616C577269E5
:103B28007465286D796E744F6E65506F7765725045
:103B3800696E2C204C4F573B00656E64006C6F6FAC
:103B480070323A20006469676974616C57726974ED
:103B580065286D796E7454776F506F776572506908
:103B68006E2C204C4F573B006469676974616C5731
:103B780072697465286D796E744F6E65506F7765DC
:103B88007250696E2C20484947483B002064696799
:103B98006974616C5772697465286D796E744F6EBB
:103BA80065506C757350696E2C204C4F573B006400
:103BB80069676974616C5772697465286D796E7488
:103BC8004F6E65506C757350696E2C204849474894
:103BD800006469676974616C5772697465286D79E6
:103BE8006E744F6E65506F77657250696E2C204801
:103BF800494748006469676974616C5772697465FC
:103C0800286D796E7454776F506F77657250696E4E
:103C18002C20484947483B00206469676974616CF7
:103C28005772697465286D796E7454776F506C7526
:103C38007350696E2C204C4F573B00646967697458
:103C4800616C5772697465286D796E7454776F501A
:103C58006C757350696E2C20484947480064696741
:103C68006974616C5772697465286D796E745477DC
:103C78006F506F77657250696E2C2048494748002D
:103C8800203A20000A2D2D2D2D00000000000000F4
:103C980000000000111A0A085B1A0A08331A0A08F9
:103CA800131A0A083B1A0A08431A0A084B1A0A0880
:103CB800531A0A080000000000000000D51A0A087C
:103CC800F9070A0855080A0866006C6E00666E0057
:103CD800636F64650064657461696C000D0A002592
:103CE8003031307520005D20002564002C2000282C
:103CF800293A2000205B00636F6465203D20002581
:103D0800690064657461696C73203D2000626175A7
:103D1800640053657269616C00555342536572695A
:103D2800616C31007479706500706172616D006357
:103D38006D6400696400686E64007374726D006677
:103D4800696C74006C766C0061646448616E646CC4
:103D580065720072656D6F766548616E646C657238
:103D680000656E756D48616E646C657273004A53C8
:103D78004F4E53747265616D4C6F6748616E646C29
:103D8800657200617070006E6F6E650074726163B9
:103D98006500696E666F007761726E006572726F9A
:103DA800720070616E696300616C6C000000000055
:103DB80000000000E11C0A08E31C0A085A00252B31
:103DC8003033643A253032750025592D256D2D255F
:103DD800645425483A254D3A2553257A0061736382
:103DE80074696D650000000000000000000000001C
:103DF80035080A0861080A08CD1E0A08EF1F0A08D4
:103E0800C51E0A08E31E0A08011F0A081B1F0A0824
:103E18003D1F0A08891F0A08AB1F0A0849210A081A
:103E280055200A08B51E0A0857220A08C1200A08A0
:103E380081210A0885220A0819200A08BB1E0A08D7
:103E480029210A08C11E0A081D1F0A08F0FFFFFFE2
:103E580000000000351F0A080000000000000000F4
:103E6800BD220A08E1220A08ED220A08A51B0A0851
:103E7800C9220A08D5220A08CF220A08DB220A0822
:103E8800BF220A08C3220A08000000000000000040
:103E980095230A08D9230A08B3230A08A51B0A0888
:103EA800AD230A0897230A089F230A08D3230A0880
:103EB800A7230A0891230A08000000000000000058
:103EC80013250A08CC0900200000000000000000AB
:103ED80000000000000000000000000000000000DA
:103EE80000000000000000000000000000000000CA
:103EF80000000000000000000000000000000000BA
:103F080000000000000000000000000000000000A9
:103F18000000000000000000000000000000000099
:103F28000000000000000000BD030A08F5070A08A9
:103F380081110A0829160A08951B0A08C51C0A08CF
:103F4800611E0A08A11E0A081D250A0881270A08F9
:103F5800B1270A0801280A08C5280A0849290A08B1
:083F6800CD290A080000000049
:043F7000000000004D
:103F74000B0000000A00000007000000040000001D
:103F8400B822000006000000020000000101000049
:103F94000300000005000000E53D0A0800000000E1
:103FA400D03E0A08F03E0A08103F0A08000000004C
:103FB400000000000000000000000000153A0A089C
:103FC40000000000000000000000000000000000ED
:103FD40000000000000000000000000000000000DD
:103FE40000000000000000000000000000000000CD
:103FF4000000000000000000000000002C0300206E
:10400400FFFFFFFF00000102030405060708090A79
:104014000B0C0D0E0F101112131415161718191A74
:084024001B1C1D1E1F202800BB
:04402C00785634127C
:04000005080A0018CD
:00000001FF
